{
    "abi": [
        {
            "type": "function",
            "name": "MAX_DEADLINE",
            "inputs": [],
            "outputs": [
                {
                    "name": "",
                    "type": "uint256",
                    "internalType": "uint256"
                }
            ],
            "stateMutability": "view"
        },
        {
            "type": "function",
            "name": "MAX_FUNDING_GOAL",
            "inputs": [],
            "outputs": [
                {
                    "name": "",
                    "type": "uint256",
                    "internalType": "uint256"
                }
            ],
            "stateMutability": "view"
        },
        {
            "type": "function",
            "name": "MIN_DEADLINE",
            "inputs": [],
            "outputs": [
                {
                    "name": "",
                    "type": "uint256",
                    "internalType": "uint256"
                }
            ],
            "stateMutability": "view"
        },
        {
            "type": "function",
            "name": "MIN_FUNDING_GOAL",
            "inputs": [],
            "outputs": [
                {
                    "name": "",
                    "type": "uint256",
                    "internalType": "uint256"
                }
            ],
            "stateMutability": "view"
        },
        {
            "type": "function",
            "name": "createCampaign",
            "inputs": [
                {
                    "name": "_fundingGoal",
                    "type": "uint256",
                    "internalType": "uint256"
                },
                {
                    "name": "_deadlineInSeconds",
                    "type": "uint256",
                    "internalType": "uint256"
                }
            ],
            "outputs": [
                {
                    "name": "",
                    "type": "address",
                    "internalType": "address"
                }
            ],
            "stateMutability": "nonpayable"
        },
        {
            "type": "function",
            "name": "createCampaign",
            "inputs": [
                {
                    "name": "_fundingGoal",
                    "type": "uint256",
                    "internalType": "uint256"
                },
                {
                    "name": "_deadlineInSeconds",
                    "type": "uint256",
                    "internalType": "uint256"
                },
                {
                    "name": "_title",
                    "type": "string",
                    "internalType": "string"
                },
                {
                    "name": "_description",
                    "type": "string",
                    "internalType": "string"
                },
                {
                    "name": "_category",
                    "type": "string",
                    "internalType": "string"
                }
            ],
            "outputs": [
                {
                    "name": "campaignAddress",
                    "type": "address",
                    "internalType": "address"
                }
            ],
            "stateMutability": "nonpayable"
        },
        {
            "type": "function",
            "name": "getAllDeployedCampaigns",
            "inputs": [],
            "outputs": [
                {
                    "name": "",
                    "type": "address[]",
                    "internalType": "address[]"
                }
            ],
            "stateMutability": "view"
        },
        {
            "type": "function",
            "name": "getCampaignDetails",
            "inputs": [
                {
                    "name": "_campaign",
                    "type": "address",
                    "internalType": "address"
                }
            ],
            "outputs": [
                {
                    "name": "researcher",
                    "type": "address",
                    "internalType": "address"
                },
                {
                    "name": "fundingGoal",
                    "type": "uint256",
                    "internalType": "uint256"
                },
                {
                    "name": "deadline",
                    "type": "uint256",
                    "internalType": "uint256"
                },
                {
                    "name": "state",
                    "type": "uint8",
                    "internalType": "enum Campaign.CampaignState"
                },
                {
                    "name": "totalFunded",
                    "type": "uint256",
                    "internalType": "uint256"
                }
            ],
            "stateMutability": "view"
        },
        {
            "type": "function",
            "name": "getCampaignMetadata",
            "inputs": [
                {
                    "name": "_campaign",
                    "type": "address",
                    "internalType": "address"
                }
            ],
            "outputs": [
                {
                    "name": "",
                    "type": "tuple",
                    "internalType": "struct MomentumFactory.CampaignMetadata",
                    "components": [
                        {
                            "name": "title",
                            "type": "string",
                            "internalType": "string"
                        },
                        {
                            "name": "description",
                            "type": "string",
                            "internalType": "string"
                        },
                        {
                            "name": "category",
                            "type": "string",
                            "internalType": "string"
                        },
                        {
                            "name": "createdAt",
                            "type": "uint256",
                            "internalType": "uint256"
                        },
                        {
                            "name": "researcher",
                            "type": "address",
                            "internalType": "address"
                        }
                    ]
                }
            ],
            "stateMutability": "view"
        },
        {
            "type": "function",
            "name": "getCampaignsByResearcher",
            "inputs": [
                {
                    "name": "_researcher",
                    "type": "address",
                    "internalType": "address"
                }
            ],
            "outputs": [
                {
                    "name": "",
                    "type": "address[]",
                    "internalType": "address[]"
                }
            ],
            "stateMutability": "view"
        },
        {
            "type": "function",
            "name": "getDeployedCampaigns",
            "inputs": [
                {
                    "name": "_offset",
                    "type": "uint256",
                    "internalType": "uint256"
                },
                {
                    "name": "_limit",
                    "type": "uint256",
                    "internalType": "uint256"
                }
            ],
            "outputs": [
                {
                    "name": "campaigns",
                    "type": "address[]",
                    "internalType": "address[]"
                }
            ],
            "stateMutability": "view"
        },
        {
            "type": "function",
            "name": "getTotalCampaigns",
            "inputs": [],
            "outputs": [
                {
                    "name": "",
                    "type": "uint256",
                    "internalType": "uint256"
                }
            ],
            "stateMutability": "view"
        },
        {
            "type": "function",
            "name": "isValidCampaign",
            "inputs": [
                {
                    "name": "_campaign",
                    "type": "address",
                    "internalType": "address"
                }
            ],
            "outputs": [
                {
                    "name": "",
                    "type": "bool",
                    "internalType": "bool"
                }
            ],
            "stateMutability": "view"
        },
        {
            "type": "function",
            "name": "s_campaignMetadata",
            "inputs": [
                {
                    "name": "",
                    "type": "address",
                    "internalType": "address"
                }
            ],
            "outputs": [
                {
                    "name": "title",
                    "type": "string",
                    "internalType": "string"
                },
                {
                    "name": "description",
                    "type": "string",
                    "internalType": "string"
                },
                {
                    "name": "category",
                    "type": "string",
                    "internalType": "string"
                },
                {
                    "name": "createdAt",
                    "type": "uint256",
                    "internalType": "uint256"
                },
                {
                    "name": "researcher",
                    "type": "address",
                    "internalType": "address"
                }
            ],
            "stateMutability": "view"
        },
        {
            "type": "function",
            "name": "s_isValidCampaign",
            "inputs": [
                {
                    "name": "",
                    "type": "address",
                    "internalType": "address"
                }
            ],
            "outputs": [
                {
                    "name": "",
                    "type": "bool",
                    "internalType": "bool"
                }
            ],
            "stateMutability": "view"
        },
        {
            "type": "event",
            "name": "CampaignCreated",
            "inputs": [
                {
                    "name": "researcher",
                    "type": "address",
                    "indexed": true,
                    "internalType": "address"
                },
                {
                    "name": "campaignAddress",
                    "type": "address",
                    "indexed": true,
                    "internalType": "address"
                },
                {
                    "name": "fundingGoal",
                    "type": "uint256",
                    "indexed": false,
                    "internalType": "uint256"
                },
                {
                    "name": "deadline",
                    "type": "uint256",
                    "indexed": false,
                    "internalType": "uint256"
                },
                {
                    "name": "title",
                    "type": "string",
                    "indexed": false,
                    "internalType": "string"
                }
            ],
            "anonymous": false
        },
        {
            "type": "error",
            "name": "MomentumFactory__CampaignCreationFailed",
            "inputs": []
        },
        {
            "type": "error",
            "name": "MomentumFactory__InvalidDeadline",
            "inputs": []
        },
        {
            "type": "error",
            "name": "MomentumFactory__InvalidFundingGoal",
            "inputs": []
        }
    ],
    "bytecode": {
        "object": "0x6080604052348015600e575f5ffd5b50612d608061001c5f395ff3fe608060405234801561000f575f5ffd5b50600436106100f3575f3560e01c806385ae341d11610095578063a7b6828b11610064578063a7b6828b146102c7578063a950fbc5146102f7578063add7906414610315578063b4008b0c14610333576100f3565b806385ae341d146102155780639ca65ab8146102335780639e7b179014610267578063a3808d9314610297576100f3565b80634cde4db4116100d15780634cde4db4146101635780635910b0c2146101935780636f0e530f146101c757806371572a56146101e5576100f3565b806316f43dd4146100f7578063225022681461011557806336d95f5614610145575b5f5ffd5b6100ff610363565b60405161010c919061122d565b60405180910390f35b61012f600480360381019061012a9190611281565b61036e565b60405161013c91906112fe565b60405180910390f35b61014d6103ae565b60405161015a919061122d565b60405180910390f35b61017d60048036038101906101789190611341565b6103b9565b60405161018a9190611386565b60405180910390f35b6101ad60048036038101906101a89190611341565b6103d6565b6040516101be95949392919061140f565b60405180910390f35b6101cf6105b9565b6040516101dc919061122d565b60405180910390f35b6101ff60048036038101906101fa91906115a1565b6105c1565b60405161020c91906112fe565b60405180910390f35b61021d6109db565b60405161022a919061122d565b60405180910390f35b61024d60048036038101906102489190611341565b6109e2565b60405161025e9594939291906116df565b60405180910390f35b610281600480360381019061027c9190611341565b610c20565b60405161028e91906117e7565b60405180910390f35b6102b160048036038101906102ac9190611341565b610ce8565b6040516102be9190611386565b60405180910390f35b6102e160048036038101906102dc9190611281565b610d3a565b6040516102ee91906117e7565b60405180910390f35b6102ff610ec9565b60405161030c91906117e7565b60405180910390f35b61031d610f53565b60405161032a919061122d565b60405180910390f35b61034d60048036038101906103489190611341565b610f60565b60405161035a91906118df565b60405180910390f35b5f5f80549050905090565b5f6103a6838360405180602001604052805f81525060405180602001604052805f81525060405180602001604052805f8152506105c1565b905092915050565b662386f26fc1000081565b6002602052805f5260405f205f915054906101000a900460ff1681565b6003602052805f5260405f205f91509050805f0180546103f59061192c565b80601f01602080910402602001604051908101604052809291908181526020018280546104219061192c565b801561046c5780601f106104435761010080835404028352916020019161046c565b820191905f5260205f20905b81548152906001019060200180831161044f57829003601f168201915b5050505050908060010180546104819061192c565b80601f01602080910402602001604051908101604052809291908181526020018280546104ad9061192c565b80156104f85780601f106104cf576101008083540402835291602001916104f8565b820191905f5260205f20905b8154815290600101906020018083116104db57829003601f168201915b50505050509080600201805461050d9061192c565b80601f01602080910402602001604051908101604052809291908181526020018280546105399061192c565b80156105845780601f1061055b57610100808354040283529160200191610584565b820191905f5260205f20905b81548152906001019060200180831161056757829003601f168201915b505050505090806003015490806004015f9054906101000a900473ffffffffffffffffffffffffffffffffffffffff16905085565b6301e1338081565b5f662386f26fc100008610806105df5750683635c9adc5dea0000086115b15610616576040517f568c772c00000000000000000000000000000000000000000000000000000000815260040160405180910390fd5b6201518085108061062a57506301e1338085115b15610661576040517f4699810a00000000000000000000000000000000000000000000000000000000815260040160405180910390fd5b5f338787604051610671906111c5565b61067d9392919061195c565b604051809103905ff080158015610696573d5f5f3e3d5ffd5b5090508091505f73ffffffffffffffffffffffffffffffffffffffff168273ffffffffffffffffffffffffffffffffffffffff1603610701576040517fa6714aa700000000000000000000000000000000000000000000000000000000815260040160405180910390fd5b5f82908060018154018082558091505060019003905f5260205f20015f9091909190916101000a81548173ffffffffffffffffffffffffffffffffffffffff021916908373ffffffffffffffffffffffffffffffffffffffff16021790555060015f3373ffffffffffffffffffffffffffffffffffffffff1673ffffffffffffffffffffffffffffffffffffffff1681526020019081526020015f2082908060018154018082558091505060019003905f5260205f20015f9091909190916101000a81548173ffffffffffffffffffffffffffffffffffffffff021916908373ffffffffffffffffffffffffffffffffffffffff160217905550600160025f8473ffffffffffffffffffffffffffffffffffffffff1673ffffffffffffffffffffffffffffffffffffffff1681526020019081526020015f205f6101000a81548160ff0219169083151502179055506040518060a001604052808681526020018581526020018481526020014281526020013373ffffffffffffffffffffffffffffffffffffffff1681525060035f8473ffffffffffffffffffffffffffffffffffffffff1673ffffffffffffffffffffffffffffffffffffffff1681526020019081526020015f205f820151815f0190816108dd9190611b31565b5060208201518160010190816108f39190611b31565b5060408201518160020190816109099190611b31565b50606082015181600301556080820151816004015f6101000a81548173ffffffffffffffffffffffffffffffffffffffff021916908373ffffffffffffffffffffffffffffffffffffffff1602179055509050508173ffffffffffffffffffffffffffffffffffffffff163373ffffffffffffffffffffffffffffffffffffffff167fbe12cd61db77adb20e095dd401ab22a9dbfa8f24609e60d43a7b365bc88eb6108989426109b99190611c2d565b896040516109c993929190611c60565b60405180910390a35095945050505050565b6201518081565b5f5f5f5f5f5f8690508073ffffffffffffffffffffffffffffffffffffffff1663a399282d6040518163ffffffff1660e01b8152600401602060405180830381865afa158015610a34573d5f5f3e3d5ffd5b505050506040513d601f19601f82011682018060405250810190610a589190611cb0565b8173ffffffffffffffffffffffffffffffffffffffff16635cbd59426040518163ffffffff1660e01b8152600401602060405180830381865afa158015610aa1573d5f5f3e3d5ffd5b505050506040513d601f19601f82011682018060405250810190610ac59190611cef565b8273ffffffffffffffffffffffffffffffffffffffff16634628ac396040518163ffffffff1660e01b8152600401602060405180830381865afa158015610b0e573d5f5f3e3d5ffd5b505050506040513d601f19601f82011682018060405250810190610b329190611cef565b8373ffffffffffffffffffffffffffffffffffffffff1663e7d7844a6040518163ffffffff1660e01b8152600401602060405180830381865afa158015610b7b573d5f5f3e3d5ffd5b505050506040513d601f19601f82011682018060405250810190610b9f9190611d3d565b8473ffffffffffffffffffffffffffffffffffffffff1663ca03d4786040518163ffffffff1660e01b8152600401602060405180830381865afa158015610be8573d5f5f3e3d5ffd5b505050506040513d601f19601f82011682018060405250810190610c0c9190611cef565b955095509550955095505091939590929450565b606060015f8373ffffffffffffffffffffffffffffffffffffffff1673ffffffffffffffffffffffffffffffffffffffff1681526020019081526020015f20805480602002602001604051908101604052809291908181526020018280548015610cdc57602002820191905f5260205f20905b815f9054906101000a900473ffffffffffffffffffffffffffffffffffffffff1673ffffffffffffffffffffffffffffffffffffffff1681526020019060010190808311610c93575b50505050509050919050565b5f60025f8373ffffffffffffffffffffffffffffffffffffffff1673ffffffffffffffffffffffffffffffffffffffff1681526020019081526020015f205f9054906101000a900460ff169050919050565b60605f5f805490509050808410610d9c575f67ffffffffffffffff811115610d6557610d6461147d565b5b604051908082528060200260200182016040528015610d935781602001602082028036833780820191505090505b50915050610ec3565b5f8385610da99190611c2d565b905081811115610db7578190505b5f8582610dc49190611d68565b90508067ffffffffffffffff811115610de057610ddf61147d565b5b604051908082528060200260200182016040528015610e0e5781602001602082028036833780820191505090505b5093505f5f90505b81811015610ebe575f8188610e2b9190611c2d565b81548110610e3c57610e3b611d9b565b5b905f5260205f20015f9054906101000a900473ffffffffffffffffffffffffffffffffffffffff16858281518110610e7757610e76611d9b565b5b602002602001019073ffffffffffffffffffffffffffffffffffffffff16908173ffffffffffffffffffffffffffffffffffffffff16815250508080600101915050610e16565b505050505b92915050565b60605f805480602002602001604051908101604052809291908181526020018280548015610f4957602002820191905f5260205f20905b815f9054906101000a900473ffffffffffffffffffffffffffffffffffffffff1673ffffffffffffffffffffffffffffffffffffffff1681526020019060010190808311610f00575b5050505050905090565b683635c9adc5dea0000081565b610f686111d2565b60035f8373ffffffffffffffffffffffffffffffffffffffff1673ffffffffffffffffffffffffffffffffffffffff1681526020019081526020015f206040518060a00160405290815f82018054610fbf9061192c565b80601f0160208091040260200160405190810160405280929190818152602001828054610feb9061192c565b80156110365780601f1061100d57610100808354040283529160200191611036565b820191905f5260205f20905b81548152906001019060200180831161101957829003601f168201915b5050505050815260200160018201805461104f9061192c565b80601f016020809104026020016040519081016040528092919081815260200182805461107b9061192c565b80156110c65780601f1061109d576101008083540402835291602001916110c6565b820191905f5260205f20905b8154815290600101906020018083116110a957829003601f168201915b505050505081526020016002820180546110df9061192c565b80601f016020809104026020016040519081016040528092919081815260200182805461110b9061192c565b80156111565780601f1061112d57610100808354040283529160200191611156565b820191905f5260205f20905b81548152906001019060200180831161113957829003601f168201915b5050505050815260200160038201548152602001600482015f9054906101000a900473ffffffffffffffffffffffffffffffffffffffff1673ffffffffffffffffffffffffffffffffffffffff1673ffffffffffffffffffffffffffffffffffffffff16815250509050919050565b610f6280611dc983390190565b6040518060a001604052806060815260200160608152602001606081526020015f81526020015f73ffffffffffffffffffffffffffffffffffffffff1681525090565b5f819050919050565b61122781611215565b82525050565b5f6020820190506112405f83018461121e565b92915050565b5f604051905090565b5f5ffd5b5f5ffd5b61126081611215565b811461126a575f5ffd5b50565b5f8135905061127b81611257565b92915050565b5f5f604083850312156112975761129661124f565b5b5f6112a48582860161126d565b92505060206112b58582860161126d565b9150509250929050565b5f73ffffffffffffffffffffffffffffffffffffffff82169050919050565b5f6112e8826112bf565b9050919050565b6112f8816112de565b82525050565b5f6020820190506113115f8301846112ef565b92915050565b611320816112de565b811461132a575f5ffd5b50565b5f8135905061133b81611317565b92915050565b5f602082840312156113565761135561124f565b5b5f6113638482850161132d565b91505092915050565b5f8115159050919050565b6113808161136c565b82525050565b5f6020820190506113995f830184611377565b92915050565b5f81519050919050565b5f82825260208201905092915050565b8281835e5f83830152505050565b5f601f19601f8301169050919050565b5f6113e18261139f565b6113eb81856113a9565b93506113fb8185602086016113b9565b611404816113c7565b840191505092915050565b5f60a0820190508181035f83015261142781886113d7565b9050818103602083015261143b81876113d7565b9050818103604083015261144f81866113d7565b905061145e606083018561121e565b61146b60808301846112ef565b9695505050505050565b5f5ffd5b5f5ffd5b7f4e487b71000000000000000000000000000000000000000000000000000000005f52604160045260245ffd5b6114b3826113c7565b810181811067ffffffffffffffff821117156114d2576114d161147d565b5b80604052505050565b5f6114e4611246565b90506114f082826114aa565b919050565b5f67ffffffffffffffff82111561150f5761150e61147d565b5b611518826113c7565b9050602081019050919050565b828183375f83830152505050565b5f611545611540846114f5565b6114db565b90508281526020810184848401111561156157611560611479565b5b61156c848285611525565b509392505050565b5f82601f83011261158857611587611475565b5b8135611598848260208601611533565b91505092915050565b5f5f5f5f5f60a086880312156115ba576115b961124f565b5b5f6115c78882890161126d565b95505060206115d88882890161126d565b945050604086013567ffffffffffffffff8111156115f9576115f8611253565b5b61160588828901611574565b935050606086013567ffffffffffffffff81111561162657611625611253565b5b61163288828901611574565b925050608086013567ffffffffffffffff81111561165357611652611253565b5b61165f88828901611574565b9150509295509295909350565b7f4e487b71000000000000000000000000000000000000000000000000000000005f52602160045260245ffd5b600481106116aa576116a961166c565b5b50565b5f8190506116ba82611699565b919050565b5f6116c9826116ad565b9050919050565b6116d9816116bf565b82525050565b5f60a0820190506116f25f8301886112ef565b6116ff602083018761121e565b61170c604083018661121e565b61171960608301856116d0565b611726608083018461121e565b9695505050505050565b5f81519050919050565b5f82825260208201905092915050565b5f819050602082019050919050565b611762816112de565b82525050565b5f6117738383611759565b60208301905092915050565b5f602082019050919050565b5f61179582611730565b61179f818561173a565b93506117aa8361174a565b805f5b838110156117da5781516117c18882611768565b97506117cc8361177f565b9250506001810190506117ad565b5085935050505092915050565b5f6020820190508181035f8301526117ff818461178b565b905092915050565b5f82825260208201905092915050565b5f6118218261139f565b61182b8185611807565b935061183b8185602086016113b9565b611844816113c7565b840191505092915050565b61185881611215565b82525050565b5f60a083015f8301518482035f8601526118788282611817565b915050602083015184820360208601526118928282611817565b915050604083015184820360408601526118ac8282611817565b91505060608301516118c1606086018261184f565b5060808301516118d46080860182611759565b508091505092915050565b5f6020820190508181035f8301526118f7818461185e565b905092915050565b7f4e487b71000000000000000000000000000000000000000000000000000000005f52602260045260245ffd5b5f600282049050600182168061194357607f821691505b602082108103611956576119556118ff565b5b50919050565b5f60608201905061196f5f8301866112ef565b61197c602083018561121e565b611989604083018461121e565b949350505050565b5f819050815f5260205f209050919050565b5f6020601f8301049050919050565b5f82821b905092915050565b5f600883026119ed7fffffffffffffffffffffffffffffffffffffffffffffffffffffffffffffffff826119b2565b6119f786836119b2565b95508019841693508086168417925050509392505050565b5f819050919050565b5f611a32611a2d611a2884611215565b611a0f565b611215565b9050919050565b5f819050919050565b611a4b83611a18565b611a5f611a5782611a39565b8484546119be565b825550505050565b5f5f905090565b611a76611a67565b611a81818484611a42565b505050565b5b81811015611aa457611a995f82611a6e565b600181019050611a87565b5050565b601f821115611ae957611aba81611991565b611ac3846119a3565b81016020851015611ad2578190505b611ae6611ade856119a3565b830182611a86565b50505b505050565b5f82821c905092915050565b5f611b095f1984600802611aee565b1980831691505092915050565b5f611b218383611afa565b9150826002028217905092915050565b611b3a8261139f565b67ffffffffffffffff811115611b5357611b5261147d565b5b611b5d825461192c565b611b68828285611aa8565b5f60209050601f831160018114611b99575f8415611b87578287015190505b611b918582611b16565b865550611bf8565b601f198416611ba786611991565b5f5b82811015611bce57848901518255600182019150602085019450602081019050611ba9565b86831015611beb5784890151611be7601f891682611afa565b8355505b6001600288020188555050505b505050505050565b7f4e487b71000000000000000000000000000000000000000000000000000000005f52601160045260245ffd5b5f611c3782611215565b9150611c4283611215565b9250828201905080821115611c5a57611c59611c00565b5b92915050565b5f606082019050611c735f83018661121e565b611c80602083018561121e565b8181036040830152611c9281846113d7565b9050949350505050565b5f81519050611caa81611317565b92915050565b5f60208284031215611cc557611cc461124f565b5b5f611cd284828501611c9c565b91505092915050565b5f81519050611ce981611257565b92915050565b5f60208284031215611d0457611d0361124f565b5b5f611d1184828501611cdb565b91505092915050565b60048110611d26575f5ffd5b50565b5f81519050611d3781611d1a565b92915050565b5f60208284031215611d5257611d5161124f565b5b5f611d5f84828501611d29565b91505092915050565b5f611d7282611215565b9150611d7d83611215565b9250828203905081811115611d9557611d94611c00565b5b92915050565b7f4e487b71000000000000000000000000000000000000000000000000000000005f52603260045260245ffdfe60e060405234801561000f575f5ffd5b50604051610f62380380610f6283398181016040528101906100319190610149565b60015f819055508273ffffffffffffffffffffffffffffffffffffffff1660808173ffffffffffffffffffffffffffffffffffffffff16815250508160a08181525050804261008091906101c6565b60c081815250505f60015f6101000a81548160ff021916908360038111156100ab576100aa6101f9565b5b0217905550505050610226565b5f5ffd5b5f73ffffffffffffffffffffffffffffffffffffffff82169050919050565b5f6100e5826100bc565b9050919050565b6100f5816100db565b81146100ff575f5ffd5b50565b5f81519050610110816100ec565b92915050565b5f819050919050565b61012881610116565b8114610132575f5ffd5b50565b5f815190506101438161011f565b92915050565b5f5f5f606084860312156101605761015f6100b8565b5b5f61016d86828701610102565b935050602061017e86828701610135565b925050604061018f86828701610135565b9150509250925092565b7f4e487b71000000000000000000000000000000000000000000000000000000005f52601160045260245ffd5b5f6101d082610116565b91506101db83610116565b92508282019050808211156101f3576101f2610199565b5b92915050565b7f4e487b71000000000000000000000000000000000000000000000000000000005f52602160045260245ffd5b60805160a05160c051610ce861027a5f395f81816104500152818161049801526108dd01525f8181610474015261055c01525f81816101f001528181610318015281816103d601526106250152610ce85ff3fe608060405260043610610090575f3560e01c8063b5545a3c11610058578063b5545a3c1461013e578063b60d428814610154578063ca03d4781461015e578063dde56e6d14610188578063e7d7844a146101c457610090565b806324600fc3146100945780634628ac39146100aa5780635cbd5942146100d4578063a1211bc0146100fe578063a399282d14610114575b5f5ffd5b34801561009f575f5ffd5b506100a86101ee565b005b3480156100b5575f5ffd5b506100be61044e565b6040516100cb9190610abb565b60405180910390f35b3480156100df575f5ffd5b506100e8610472565b6040516100f59190610abb565b60405180910390f35b348015610109575f5ffd5b50610112610496565b005b34801561011f575f5ffd5b50610128610623565b6040516101359190610b13565b60405180910390f35b348015610149575f5ffd5b50610152610647565b005b61015c610870565b005b348015610169575f5ffd5b50610172610a29565b60405161017f9190610abb565b60405180910390f35b348015610193575f5ffd5b506101ae60048036038101906101a99190610b5a565b610a2f565b6040516101bb9190610abb565b60405180910390f35b3480156101cf575f5ffd5b506101d8610a44565b6040516101e59190610bf8565b60405180910390f35b7f000000000000000000000000000000000000000000000000000000000000000073ffffffffffffffffffffffffffffffffffffffff163373ffffffffffffffffffffffffffffffffffffffff1614610273576040517ffea0a14b00000000000000000000000000000000000000000000000000000000815260040160405180910390fd5b61027b610a56565b6001600381111561028f5761028e610b85565b5b60015f9054906101000a900460ff1660038111156102b0576102af610b85565b5b146102e7576040517f1329a3e600000000000000000000000000000000000000000000000000000000815260040160405180910390fd5b5f479050600360015f6101000a81548160ff021916908360038111156103105761030f610b85565b5b02179055505f7f000000000000000000000000000000000000000000000000000000000000000073ffffffffffffffffffffffffffffffffffffffff168260405161035a90610c3e565b5f6040518083038185875af1925050503d805f8114610394576040519150601f19603f3d011682016040523d82523d5f602084013e610399565b606091505b50509050806103d4576040517fe5dd925500000000000000000000000000000000000000000000000000000000815260040160405180910390fd5b7f000000000000000000000000000000000000000000000000000000000000000073ffffffffffffffffffffffffffffffffffffffff167f06a0982d8b0bd87e1ae43f31a116ca52b1353fbc3dc30a1a97cf143da800cb0d8360405161043a9190610abb565b60405180910390a2505061044c610a9a565b565b7f000000000000000000000000000000000000000000000000000000000000000081565b7f000000000000000000000000000000000000000000000000000000000000000081565b7f000000000000000000000000000000000000000000000000000000000000000042116104ef576040517febeab3da00000000000000000000000000000000000000000000000000000000815260040160405180910390fd5b5f600381111561050257610501610b85565b5b60015f9054906101000a900460ff16600381111561052357610522610b85565b5b1461055a576040517f5a09b7f700000000000000000000000000000000000000000000000000000000815260040160405180910390fd5b7f0000000000000000000000000000000000000000000000000000000000000000600254106105b1576001805f6101000a81548160ff021916908360038111156105a7576105a6610b85565b5b02179055506105dc565b600260015f6101000a81548160ff021916908360038111156105d6576105d5610b85565b5b02179055505b7f3b84c8c4eab28171eda5a93744322d68bafe783378c1dd2a580676dd0a5ea05760015f9054906101000a900460ff166040516106199190610bf8565b60405180910390a1565b7f000000000000000000000000000000000000000000000000000000000000000081565b61064f610a56565b6002600381111561066357610662610b85565b5b60015f9054906101000a900460ff16600381111561068457610683610b85565b5b146106bb576040517f69a42eba00000000000000000000000000000000000000000000000000000000815260040160405180910390fd5b5f60035f3373ffffffffffffffffffffffffffffffffffffffff1673ffffffffffffffffffffffffffffffffffffffff1681526020019081526020015f205490505f8103610735576040517f31e754a500000000000000000000000000000000000000000000000000000000815260040160405180910390fd5b5f60035f3373ffffffffffffffffffffffffffffffffffffffff1673ffffffffffffffffffffffffffffffffffffffff1681526020019081526020015f20819055505f3373ffffffffffffffffffffffffffffffffffffffff168260405161079c90610c3e565b5f6040518083038185875af1925050503d805f81146107d6576040519150601f19603f3d011682016040523d82523d5f602084013e6107db565b606091505b5050905080610816576040517fe5dd925500000000000000000000000000000000000000000000000000000000815260040160405180910390fd5b3373ffffffffffffffffffffffffffffffffffffffff167fd7dee2702d63ad89917b6a4da9981c90c4d24f8c2bdfd64c604ecae57d8d06518360405161085c9190610abb565b60405180910390a2505061086e610a9a565b565b5f600381111561088357610882610b85565b5b60015f9054906101000a900460ff1660038111156108a4576108a3610b85565b5b146108db576040517f0be116f700000000000000000000000000000000000000000000000000000000815260040160405180910390fd5b7f0000000000000000000000000000000000000000000000000000000000000000421115610935576040517f3451592000000000000000000000000000000000000000000000000000000000815260040160405180910390fd5b5f340361096e576040517fb37bf5ee00000000000000000000000000000000000000000000000000000000815260040160405180910390fd5b3460035f3373ffffffffffffffffffffffffffffffffffffffff1673ffffffffffffffffffffffffffffffffffffffff1681526020019081526020015f205f8282546109ba9190610c7f565b925050819055503460025f8282546109d29190610c7f565b925050819055503373ffffffffffffffffffffffffffffffffffffffff167f1dff23b965dba2af250c61d628a9dbc3857e77c638b2b4655d1fa20dfdf2a17a34604051610a1f9190610abb565b60405180910390a2565b60025481565b6003602052805f5260405f205f915090505481565b60015f9054906101000a900460ff1681565b60025f5403610a91576040517f3ee5aeb500000000000000000000000000000000000000000000000000000000815260040160405180910390fd5b60025f81905550565b60015f81905550565b5f819050919050565b610ab581610aa3565b82525050565b5f602082019050610ace5f830184610aac565b92915050565b5f73ffffffffffffffffffffffffffffffffffffffff82169050919050565b5f610afd82610ad4565b9050919050565b610b0d81610af3565b82525050565b5f602082019050610b265f830184610b04565b92915050565b5f5ffd5b610b3981610af3565b8114610b43575f5ffd5b50565b5f81359050610b5481610b30565b92915050565b5f60208284031215610b6f57610b6e610b2c565b5b5f610b7c84828501610b46565b91505092915050565b7f4e487b71000000000000000000000000000000000000000000000000000000005f52602160045260245ffd5b60048110610bc357610bc2610b85565b5b50565b5f819050610bd382610bb2565b919050565b5f610be282610bc6565b9050919050565b610bf281610bd8565b82525050565b5f602082019050610c0b5f830184610be9565b92915050565b5f81905092915050565b50565b5f610c295f83610c11565b9150610c3482610c1b565b5f82019050919050565b5f610c4882610c1e565b9150819050919050565b7f4e487b71000000000000000000000000000000000000000000000000000000005f52601160045260245ffd5b5f610c8982610aa3565b9150610c9483610aa3565b9250828201905080821115610cac57610cab610c52565b5b9291505056fea2646970667358221220ec8b860fc73b11765f47437e48d90b8690357259d1784af5f37556255cab736864736f6c634300081e0033a26469706673582212206370020437f9758329ce2cb137b5696476f88ff8ac8e118003f1f06a60c8101664736f6c634300081e0033",
        "linkReferences": {}
    },
    "methodIdentifiers": {
        "MAX_DEADLINE()": "6f0e530f",
        "MAX_FUNDING_GOAL()": "add79064",
        "MIN_DEADLINE()": "85ae341d",
        "MIN_FUNDING_GOAL()": "36d95f56",
        "createCampaign(uint256,uint256)": "22502268",
        "createCampaign(uint256,uint256,string,string,string)": "71572a56",
        "getAllDeployedCampaigns()": "a950fbc5",
        "getCampaignDetails(address)": "9ca65ab8",
        "getCampaignMetadata(address)": "b4008b0c",
        "getCampaignsByResearcher(address)": "9e7b1790",
        "getDeployedCampaigns(uint256,uint256)": "a7b6828b",
        "getTotalCampaigns()": "16f43dd4",
        "isValidCampaign(address)": "a3808d93",
        "s_campaignMetadata(address)": "5910b0c2",
        "s_isValidCampaign(address)": "4cde4db4"
    },
    "id": 21
}